:020000040800F2
:10000000C0040020010100080B0F00081B0E0008AF
:10001000090F0008990100084D16000800000000B3
:10002000000000000000000000000000B114000803
:10003000B3010008000000008D110008CD14000875
:100040001B0100081B0100081B0100081B01000820
:100050001B0100081B0100081B0100081B01000810
:100060001B0100081B0100081B0100081B01000800
:100070001B0100081B0100081B0100081B010008F0
:100080001B0100081B0100081B0100081B010008E0
:100090001B0100081B0100081B0100081B010008D0
:1000A0001B0100081B0100081B0100081B010008C0
:1000B0001B0100081B0100081B0100081B010008B0
:1000C0001B0100081B0100081B0100081B010008A0
:1000D0001B0100081B0100081B0100081B01000890
:1000E0001B0100081B0100081B010008DFF80CD0F1
:1000F00000F040F8004800477D180008C0040020C8
:100100000648804706480047FEE7FEE7FEE7FEE7B1
:10011000FEE7FEE7FEE7FEE7FEE7FEE72F15000835
:10012000ED000008D2B201E000F8012B491EFBD21D
:1001300070470022F6E710B513460A4604461946F2
:10014000FFF7F0FF204610BD30B50B4601460020FA
:100150002022012409E021FA02F59D4205D303FA89
:1001600002F5491B04FA02F52844151EA2F101020A
:10017000F1DC30BD064C074D06E0E06840F00103BD
:1001800094E8070098471034AC42F6D3FFF7B2FF6B
:10019000BC180008DC180008FEE770B50C460546E0
:1001A00001F054F820EA04012846BDE8704001F04F
:1001B0004FBA704772B6FEE770B5044600F004F916
:1001C0000546601C02D004480078044400F0FCF8A6
:1001D000401BA042FAD370BD0C0000202DE9F84F5F
:1001E000DFF8B891002409F1040A0AF1040B234650
:1001F0000F270BF1040EC9E00125A5402A40AA42B1
:100200007DD1674ED1F804C0ACEB0608B44532D0BE
:1002100014DCBCF1030F3AD009DCBCF1000F2AD08A
:10022000BCF1010F1CD0BCF1020F31D11DE0BCF1BB
:10023000110F17D0BCF1120F2AD119E0B8F5881FA1
:1002400019D006DCB8F5803F15D0B8F5801F1FD156
:1002500011E0B8F5001F0ED0B8F5041F18D10AE060
:10026000CB6815E0CB681B1D12E0CB6808330FE0AC
:10027000CB680C330CE08B682BB1012B4FF00803DB
:1002800003D0456104E0042302E0056100E000239F
:10029000FF2A01D8064601E000F104064FEA840572
:1002A00001D9A5F12005D6F8008007FA05FC28EA57
:1002B0000C0803FA05F548EA0508C6F800804D6801
:1002C000ED0062D5374DAE6946F00106AE61AD690D
:1002D00024F0030605F001050095334D06EB050CEF
:1002E000DCF80850A607360F07FA06F825EA0805D5
:1002F000DFF8B880404503D14FF0000817E044E034
:10030000DFF8AC80404502D14FF001080FE0DFF884
:10031000A480404502D14FF0020808E0DFF8988041
:10032000404502D14FF0030801E04FF0040808FAFD
:1003300006F848EA0508CCF808804D68D9F800604E
:10034000ED034D4601D5164300E096432E604D68FF
:10035000DAF80060AD03554601D5164300E0964338
:100360002E604D68DBF80060ED025D4601D5164356
:1003700000E096432E604D68DEF80060AD027546E1
:1003800001D5164300E096432E60641C0D682A4692
:10039000E5407FF431AFBDE8F88F00000004014074
:1003A0000000111000100240000001400008014050
:1003B000000C014000100140001401400AB101612D
:1003C00070470904FBE7000001488068704700009F
:1003D0000C00002002488168027811448160704757
:1003E0000C000020074810B5016841F010010160C1
:1003F000032000F067F80F2000F006F800F024F862
:10040000002010BD0020024070B50D4D04464FF491
:100410007A712878B1FBF0F00A490968B1FBF0F075
:1004200000F025FC48B9102C07D200222146501EAE
:1004300000F028F800206C6070BD012070BD000045
:100440000C000020180000200C4808B5816941F01C
:1004500001018161816901F001010091C16941F0EF
:100460008051C161C06900F080500090044841682B
:1004700021F0E06141F00071416008BD00100240D0
:1004800000000140F0B40E4B1B680C46C3F302237E
:10049000C3F10705042D00D90425191D072901D230
:1004A000002300E0DB1E012606FA05F1491E21406B
:1004B00099409E40761E16403143F0BC01F0FEB8D4
:1004C0000CED00E0064900F0070208684FF6FF0354
:1004D000184040EA0220034A1043086070470000B9
:1004E0000CED00E00000FA052DE9F0470F4605008D
:1004F00061D0434E306800F00700B84209D230683E
:1005000020F0070038433060306800F00700B84240
:1005100051D128683B4C810712D5400703D560684C
:1005200040F4E06060602878000703D5606840F41C
:10053000605060606068A96820F0F0000843606067
:100540002878C00728D06868012810D021680228C0
:1005500010D0890700292EDA616821F003010143D8
:100560006160FFF731FF804641F288390DE0216874
:100570008903EFE78901EDE7FFF726FFA0EB08010C
:10058000494502D90320BDE8F0876068696800F03A
:100590000C00B0EB810FEFD1306800F00700B842DB
:1005A0000BD9306820F0070038433060306800F025
:1005B0000700B84201D00120E5E72878400705D5BB
:1005C0006068E96820F4E06008436060287800070C
:1005D00006D56068296920F4605040EAC100606077
:1005E00000F038F86168084AC1F30311515CC84053
:1005F0000649086006480068FFF706FF0020C2E7CA
:100600000020024000100240A4180008180000203A
:10061000100000200448054900684968044AC1F3F5
:100620000221515CC84070471800002000100240B1
:10063000B41800080448054900684968044AC1F331
:10064000C221515CC84070471800002000100240D1
:10065000B418000812A185B00FC98DE80F0014A0CE
:10066000144A006804905168134801F00C03042BED
:1006700010D0082B0ED1C1F38343C9031DF803002A
:100680000AD5516804AAC1F34041515C0A4A50435B
:10069000B0FBF1F005B0704708494843FAE70000A5
:1006A00002030405060708090A0B0C0D0E0F1010B3
:1006B000010200000010024000127A0000093D0013
:1006C0002DE9F84F040070D02078C04DC00749D004
:1006D0006868C0F38100012807D06868C0F3810012
:1006E000022809D16868C00306D52868800339D577
:1006F00060680028E7D035E06068B0F5803F0BD037
:1007000010B1B0F5A02F11D0286820F480302860F7
:10071000286820F4802002E0286840F480302860B7
:10072000606890B1FFF750FE06460AE0286840F482
:1007300080202860F0E700BFFFF746FE801B64289A
:1007400073D828688003F7D50CE0FFF73DFE064616
:1007500005E000BFFFF738FE801B6428F0D828684A
:100760008003F7D420789A4E80074FF001094FF0AC
:10077000000839D5686810F00C0F07D06868C0F31E
:100780008100022809D16868C00306D42868800760
:1007900014D52069012808D110E02069B0B1C6F84D
:1007A0000090FFF711FE074605E00AE1FFF70CFE97
:1007B000C01B0228C4D828688007F7D5286861695B
:1007C00020F0F80040EAC10028600DE0C6F8008083
:1007D000FFF7FAFD074604E0FFF7F6FDC01B02280D
:1007E00023D828688007F7D4207800072CD57948CB
:1007F000A169D9B1C0F80090FFF7E6FD074604E013
:10080000FFF7E2FDC01B02280FD8686A8007F7D502
:1008100071484FF4FA510068B0FBF1F0009000BF4E
:100820000098411E0091FAD20EE080E0C0F80080EE
:10083000FFF7CAFD074604E0FFF7C6FDC01B02280C
:1008400075D8686A8007F7D42078400760D5E869D2
:100850000027C00008D4E86940F08050E861E869EA
:10086000012700F0805000905C480168C90513D44E
:100870000168834641F480710160FFF7A5FD82465F
:1008800006E000BFFFF7A0FDA0EB0A0064284ED8E9
:10089000DBF80000C005F5D5E06801280AD008B1F2
:1008A000052813D0286A20F001002862286A20F069
:1008B000040002E0286A40F001002862E06841F28A
:1008C000883B98B1FFF780FD82460BE0286A40F034
:1008D00004002862EEE700BFFFF776FDA0EB0A01F7
:1008E00059455AD8286A8007F6D50CE0FFF76CFD09
:1008F000824605E0FFF768FDA0EB0A0159454CD898
:10090000286A8007F6D41FB1E86920F08050E861BA
:10091000E06988B36968C1F38101022944D00228E3
:10092000C6F8608004D0FFF74FFD044638E034E09D
:10093000FFF74AFD074604E0FFF746FDC01B02280B
:100940002BD828688001F7D4206AB0F5803F05D104
:100950006868A16820F4003008436860D4E90801A1
:100960000843696821F4741108436860C6F8609010
:10097000FFF72AFD044606E025E000BFFFF724FD4F
:10098000001B022809D828688001F7D51BE000BFAA
:10099000FFF71AFD001B022802D90320BDE8F88FDB
:1009A00028688001F4D40EE00128F7D06868226A34
:1009B00000F48031914204D1616A00F470108842E1
:1009C00001D00120EAE70020E8E700000010024023
:1009D00000004242800442421800002000700040A3
:1009E00070B5040009D0606A002540B125616561D9
:1009F000A56294F8510040B10CE0012070BD606820
:100A0000B0F5827FF4D0E561F2E784F850502046DB
:100A100000F040F8022084F851002068016821F0BD
:100A200040010160A088218900F4827001F4044132
:100A30000843A18901F400610843217C01F002010F
:100A40000843217D01F001010843218B01F400716D
:100A50000843217F01F03801084394F8201001F089
:100A600080010843218D01F400510843216808608A
:100A7000A069042101EA1040216848602068C1692A
:100A800021F40061C1616565012084F851000020F6
:100A900070BD000030B585B000240094019402942C
:100AA000039400681549884225D11548C16941F46D
:100AB0008041C161C16901F480410491816941F0C3
:100AC0000801816180690F4D00F0080004904FF427
:100AD00020400090022001900320039069462846A0
:100AE000FFF77CFB4FF48040CDE9000469462846BF
:100AF0000294FFF773FB05B030BD000000380040E2
:100B000000100240000C01402DE9F84F044690F817
:100B1000500000271D461646894601280DD04FF08B
:100B2000010B84F850B0FFF74FFC804694F8510059
:100B3000BA46012804D0022793E00220BDE8F88FCE
:100B4000B9F1000F73D0002E71D0032084F851004A
:100B5000C4F854A0C4F83090A686E686C4F838A03D
:100B6000A4F83CA0A4F83EA0C4F844A0C4F840A057
:100B7000A068B0F5004F09D12068016821F040015C
:100B800001602068016841F48041016020680168CB
:100B9000490603D4016841F040010160E068B0F506
:100BA000006F606803D030B3012E24D041E008B15B
:100BB000012E1CD1206B21680088C86006E02068E7
:100BC0008168890709D5216B0988C160206B801C69
:100BD0002063E08E401EE08609E0FFF7F5FBA0EB06
:100BE0000800A84202D3681C01D031E07DB3E08E3A
:100BF0000028E4D120E0206B21680078087306E02B
:100C000020688168890709D5216B09780173206BF9
:100C1000401C2063E08E401EE0860AE0FFF7D4FB14
:100C2000A0EB0800A84203D3681C02D010E017E034
:100C30006DB1E08E0028E3D142462946204600F0FF
:100C4000CBFB08B120206065A06818B106E0FFE783
:100C5000032706E02068C16880680090606D00B1DD
:100C6000012784F851B084F850A0384666E710B5E3
:100C7000401EB0F1807F01D3012010BD4FF0E02471
:100C800060610F21601700F019FD0020A0610720AE
:100C90002061002010BD70B5040004D094F83D0020
:100CA000002510B106E0012070BD84F83C502046BC
:100CB00000F022F8242084F83D002068C16821F467
:100CC0000051C160204600F033FC2068016921F426
:100CD000904101612068416921F02A014161206849
:100CE000C16841F40051C1602564202084F83D00B2
:100CF00084F83E00002070BD30B585B0002400941B
:100D000001940294039400681449884224D1144841
:100D1000816941F480418161816901F480410491DC
:100D2000816941F00401816180690E4D00F0040089
:100D300004904FF400700090022001900320039073
:100D400069462846FFF74AFA2815CDE900046946A6
:100D500028460294FFF742FA05B030BD0038014042
:100D600000100240000801402DE9F843044690F8C5
:100D70003D001F4616460D4620284CD1C5B1BEB1D8
:100D800094F83C00012846D0012084F83C004FF044
:100D90000008C4F84080212084F83D00FFF714FBD0
:100DA000A6848146E684A068B0F5805F03D004E0A5
:100DB0000120BDE8F883206928B12E465FF00005C8
:100DC00084F83C800EE00026FAE78021204600F0FF
:100DD0000BFCA0B9AEB116F8010B21684860E08C9D
:100DE000401EE084E08C4B464FF000020097002844
:100DF000EBD14FF04001204600F0F6FB30B103206C
:100E0000D7E735F8020BC0F30800E6E7202084F8A6
:100E10003D000020CDE70220CBE7FEE730B585B0EE
:100E2000002000900190029003901648816941F0E3
:100E300020018161816901F020010491816941F003
:100E400008018161816901F008010491816941F023
:100E50000401816180690C4D00F004004FF440747E
:100E60000490002221462846FFF7A8FA012103201A
:100E7000CDE90210CDE9004169462846FFF7AEF9F9
:100E800005B030BD00100240000C01400F4810B505
:100E90000D4901604FF48271416000218160C160A1
:100EA0004FF400720161C0E90512C1610162416243
:100EB00081620A21C162FFF793FD002803D0BDE8DB
:100EC0001040FFF777B910BD003800402000002027
:100ED0000C4810B50A4901604FF4E131416000212E
:100EE00081600C22C160C0E904128161C161FFF719
:100EF000D2FE002803D0BDE81040FFF75BB910BD5B
:100F00000038014078000020FEE7FEE703211420AE
:100F1000FFF743B910B54021152000F099FB0120DF
:100F2000FFF74AF9142000F091F9800703D103215B
:100F3000142000F0BEFABDE81040152000F086B97C
:100F400070B50646082188B000240846FFF725F949
:100F500000210D2000F07CFB80210E20FFF71DF901
:100F600093208DF8040020208DF8050006A801AB21
:100F70000090022219460C2000F017F805000DD150
:100F8000002101A8425C7254425C491C5440C9B221
:100F90000429F7D3405CA04200D0FE2580210E201A
:100FA00000F087FA08B0284670BD2DE9FF5F0027E2
:100FB000FE25DDF838A016468B468146B8460C283B
:100FC00005D0B9F10E0F05D11227102001E07727C7
:100FD0003020804647F08001022000F039FB80215C
:100FE0000420FFF7DAF80021012000F031FB802116
:100FF0000A2000F05EFA002405E01BF80410092026
:1010000000F026FB641CB442F7D34946012000F0EF
:101010001FFBB9F10C0F03D180210D2000F049FA1C
:1010200041F27076042000F011F90446761E04D0D7
:10103000E00702D114EA080FF4D080210D20FFF759
:10104000ACF836B1062000F001F910F01B0F0CD0FF
:10105000FE2580210C2000F02CFA0021012000F058
:10106000F7FA04B02846BDE8F09F00253C40E007B1
:1010700000D0FF25B9F10C0FEBD10A2000F0E6F803
:1010800004460C2000F0E2F810F007004FEAC4011B
:1010900001D008390144CAF8001024B1122C04D937
:1010A0001224002603E00124FBE7002605E00920C6
:1010B00000F0CCF803998855761CA642F7D3C8E710
:1010C00030B50C460546082187B00846FFF765F89D
:1010D00007210D2000F0BCFA0321142000F0E9F9EB
:1010E00006A801AB00908DF80450012219460C208F
:1010F000FFF75BFF10B90699102902D0FE2007B058
:1011000030BD9DF8041021709DF805106170F6E760
:1011100070B501221C4D540221462846FFF74EF9B6
:101120000A2000F095FB002221462846FFF746F9E9
:10113000642000F08DFB012221462846FFF73EF98E
:101140000A2000F085FB0F21012000F081FA6420C5
:1011500000F07EFB3D21112000F07AFA1E212D20A7
:1011600000F076FA00212C2000F072FA8D212A205E
:1011700000F06EFA3E212B2000F06AFA4021152083
:1011800000F066FA002070BD000C014070470000BE
:1011900070B5164D4FF48074002221462846FFF7A3
:1011A0000DF9FF230422AA211148FFF7ADFC01220B
:1011B00021462846FFF702F93220FEF7FDFFFFF730
:1011C000A7FF0A20FEF7F8FFFFF7A2FF0A20FEF7AD
:1011D000F3FFFFF79BFE0A20FEF7EEFFFFF79AFEF4
:1011E000BDE8704003A000F059BA0000000C0140B7
:1011F00020000020524649442D4D4652433532329C
:1012000020B3F5CABCBBAFCDEAB3C90D0A46696EBF
:101210006443617264205374617274696E67202E36
:101220002E2E0D0A0000000007490A68D2439207DB
:10123000FBD4054A121D10600868C043C007FBD1EB
:101240001068C0B2704700000838004070B5124EF8
:1012500004464FF48075002229463046FFF7AEF869
:101260000A20FEF7A9FF7E2000EA440040F080003B
:10127000FFF7DAFF0A20FEF79FFF0020FFF7D4FFF9
:1012800004460A20FEF798FF012229463046FFF760
:1012900095F8204670BD0000000C014038B5294982
:1012A0005220FFF70DFF00284AD126480178042973
:1012B00008D002290AD044290CD0082912D0442988
:1012C0000AD011E0407878B91FA00EE0407858B9F4
:1012D00021A00AE0417819B14078032829D003E021
:1012E00020A002E0407810B322A000F0D7F9154802
:1012F000001DFFF725FE002822D120A000F0CEF926
:10130000104C241DE0780090A378627821781EA00C
:1013100000F0C4F9207800F00F01000900EB800014
:1013200001EB4000C1B23F2905D01AA004E01FA084
:10133000DBE720A0D9E722A0BDE8384000F0AEB935
:1013400038BD0000000000200D0A4D464F6E652D8F
:101350005335300D0A0000004D464F6E652D533752
:10136000300000004D462D556C7472614C69676801
:1013700074000000556E6B6E6F776E00436172648F
:101380002049642069733A00256425642564256436
:101390000D0A0000CEDED0A7BFA83A256420D1E90F
:1013A000D6A4CAA7B0DC210D0A0000004D462D507E
:1013B000726F00004D46204465736972650000003D
:1013C000B9DCC0EDD4B13A256420D1E9D6A4CDA8CA
:1013D000B9FD210D0A00000038B50B460092044605
:1013E0000022802100F008F8002804D0606D40F051
:1013F00020006065032038BD2DE9F8431E46914664
:1014000088460446089DFEF7DFFF401B351AFEF7AD
:10141000DBFF074625480068C0F3CB30684338E05F
:10142000701C37D0FEF7D0FFC01BA84203D215B105
:10143000009860B32CE02068416821F0E001416031
:101440006068B0F5827F0BD1A068B0F5004F02D084
:10145000B0F5806F04D12068016821F0400101607F
:10146000A06AB0F5005F09D12068016821F400513D
:1014700001602068016841F400510160012084F896
:101480005100002084F850000320BDE8F8830025B7
:10149000401E00902068816838EA010004D00021D5
:1014A0004945BDD10020F0E70121F9E718000020EF
:1014B000704770B50C460546FFF7C8FE204340EA6A
:1014C00004012846BDE8704000F0C2B8FEF782BFB4
:1014D00030B58FB028216846FEF72BFE14210AA8EC
:1014E000FEF727FE01210804CDE900100024029434
:1014F00002250491CDE907504FF4E01009906846A9
:10150000FFF7DEF808B172B6FEE70F20CDE90A0555
:101510004FF48060CDE90C4002210AA80E94FEF73A
:10152000E3FF002801D072B6FEE70FB030BD704770
:1015300070B5044600680169E26821F44051114326
:1015400001612169A0680843616908432168CA688C
:1015500041F20C639A430243CA6020684169A26960
:1015600021F44071114341611E492068884202D133
:10157000FFF760F801E0FFF74DF800EBC00101EB69
:101580000012606864218000B2FBF0F3B3FBF1F35A
:101590006FF018067343B2FBF0F5B2FBF0F605EB03
:1015A0008305322303EB0515B5FBF1F5B6FBF1F628
:1015B00005F0F00505EB0615B2FBF0F6B2FBF0F016
:1015C000B0FBF1F06FF01802504306EB800003EB24
:1015D0000010B0FBF1F0216800F00F002844886093
:1015E00070BD0000003801402DE9F04198461746D3
:1015F0000E460446069D1DE0681C1BD02DB1FEF76B
:10160000E3FEA0EB0800A84214D92068C16821F4C9
:10161000D071C1602068416921F001014161202041
:1016200084F83D0084F83E00002084F83C0003204C
:10163000BDE8F0812068006836EA000004D0002090
:10164000B842D9D00020F3E70120F9E7FEE7000017
:101650002DE9F041104E0F4604464FF480750022EC
:1016600029463046FEF7AAFE0A20FEF7A5FD7E2099
:1016700000EA4400FFF7D8FD0A20FEF79DFD38463A
:10168000FFF7D2FD0A20FEF797FD29463046BDE858
:10169000F0410122FEF792BE000C01400FB4054B51
:1016A00010B503A9044A029800F028F810BC5DF8B0
:1016B00014FB0000651800081C0000200907090E33
:1016C000002804DB00F1E02080F80014704700F0EF
:1016D0000F0000F1E02080F8141D704702E008C8F8
:1016E000121F08C1002AFAD170477047002001E09C
:1016F00001C1121F002AFBD1704700002DE9FF4FE6
:1017000089B09B460446002506E025280BD05A46A2
:101710000B999047641C6D1C20780028F5D10DB002
:101720002846BDE8F08F0027B8460122474900E06F
:10173000074314F8013F203B02FA03F00842F7D1B7
:1017400020782E2819D114F8010F47F004072A2811
:101750000ED06FF02F022078A0F1300109290CD8AB
:1017600008EB880102EB410100EB0108641CF2E781
:101770000A98641C50F8048B0A9020780028CED078
:10178000642808D0692806D075281ED05A460B99BF
:1017900090476D1C58E00A994FF00A0901C90A9157
:1017A000002802DA40422D2102E0390504D52B2120
:1017B0008DF82010012103E0F90704D02021F7E77C
:1017C0008A4608AE0DE00021FAE70A994FF00A09AF
:1017D00001C90A91F7E74946FEF7B6FC303106F831
:1017E000011D0028F7D1ADEB060000F120097807B4
:1017F00001D44FF00108C84502DDA8EB090000E064
:1018000000208046002706E008A85A46C05D0B99D4
:1018100090476D1C7F1C5745F6DB04E030205A468C
:101820000B9990476D1CB8F10001A8F10108F5DC97
:1018300005E016F8010B5A460B9990476D1CB9F15B
:101840000001A9F10109F4DC641C65E70928010025
:10185000002103E000BF00BF00BF491C8142F9D353
:101860007047000013B54FF0FF330122694602486C
:10187000FFF77AFA00981CBD78000020FEF7B2FD51
:10188000FFF726FEFFF7CAFAFFF700FBFFF720FB82
:10189000FFF77EFC4FF47A742046FEF78DFCFFF7CD
:1018A000FDFCF9E700000000000000000102030455
:1018B000060708090000000001020304DC18000804
:1018C0000000002020000000DC160008FC180008C2
:1018D00020000020A0040000EC160008000000001A
:1018E00000000000000000000100000010000000E7
:0C18F000000000000024F40000000000D4
:04000005080000ED02
:00000001FF
